{
  "contractName": "CoinGame",
  "abi": [
    {
      "inputs": [],
      "stateMutability": "nonpayable",
      "type": "constructor"
    },
    {
      "anonymous": false,
      "inputs": [
        {
          "indexed": false,
          "internalType": "uint256",
          "name": "",
          "type": "uint256"
        },
        {
          "indexed": false,
          "internalType": "string",
          "name": "",
          "type": "string"
        }
      ],
      "name": "MatchAccepted",
      "type": "event"
    },
    {
      "anonymous": false,
      "inputs": [
        {
          "indexed": false,
          "internalType": "uint256",
          "name": "",
          "type": "uint256"
        },
        {
          "indexed": false,
          "internalType": "string",
          "name": "",
          "type": "string"
        }
      ],
      "name": "MatchCreated",
      "type": "event"
    },
    {
      "anonymous": false,
      "inputs": [
        {
          "indexed": false,
          "internalType": "uint256",
          "name": "",
          "type": "uint256"
        },
        {
          "indexed": false,
          "internalType": "string",
          "name": "",
          "type": "string"
        }
      ],
      "name": "MatchFinished",
      "type": "event"
    },
    {
      "stateMutability": "payable",
      "type": "receive",
      "payable": true
    },
    {
      "inputs": [
        {
          "internalType": "bool",
          "name": "_isHeads",
          "type": "bool"
        },
        {
          "internalType": "uint256",
          "name": "_rounds",
          "type": "uint256"
        }
      ],
      "name": "createMatch",
      "outputs": [],
      "stateMutability": "payable",
      "type": "function",
      "payable": true
    },
    {
      "inputs": [
        {
          "internalType": "uint256",
          "name": "_gameId",
          "type": "uint256"
        }
      ],
      "name": "acceptMatch",
      "outputs": [],
      "stateMutability": "payable",
      "type": "function",
      "payable": true
    },
    {
      "inputs": [],
      "name": "viewOpenMatches",
      "outputs": [
        {
          "internalType": "uint256[]",
          "name": "",
          "type": "uint256[]"
        }
      ],
      "stateMutability": "view",
      "type": "function",
      "constant": true
    },
    {
      "inputs": [],
      "name": "viewFinishedMatches",
      "outputs": [
        {
          "internalType": "uint256[]",
          "name": "",
          "type": "uint256[]"
        }
      ],
      "stateMutability": "view",
      "type": "function",
      "constant": true
    },
    {
      "inputs": [
        {
          "internalType": "uint256",
          "name": "_gameId",
          "type": "uint256"
        }
      ],
      "name": "getMatch",
      "outputs": [
        {
          "internalType": "uint256",
          "name": "",
          "type": "uint256"
        },
        {
          "internalType": "bool",
          "name": "",
          "type": "bool"
        },
        {
          "internalType": "address",
          "name": "",
          "type": "address"
        },
        {
          "internalType": "address",
          "name": "",
          "type": "address"
        },
        {
          "internalType": "uint256",
          "name": "",
          "type": "uint256"
        },
        {
          "internalType": "address",
          "name": "",
          "type": "address"
        }
      ],
      "stateMutability": "view",
      "type": "function",
      "constant": true
    },
    {
      "inputs": [],
      "name": "getBalance",
      "outputs": [
        {
          "internalType": "uint256",
          "name": "",
          "type": "uint256"
        }
      ],
      "stateMutability": "view",
      "type": "function",
      "constant": true
    }
  ],
  "bytecode": "0x608060405234801561001057600080fd5b506000600381905550306000806101000a81548173ffffffffffffffffffffffffffffffffffffffff021916908373ffffffffffffffffffffffffffffffffffffffff160217905550611926806100686000396000f3fe6080604052600436106100595760003560e01c806312065fe0146100655780633d092b3d1461009057806359f58e85146100d25780636e46247a146100fd5780637fa02ea714610128578063bebcd21e1461014457610060565b3661006057005b600080fd5b34801561007157600080fd5b5061007a610160565b604051610087919061135b565b60405180910390f35b34801561009c57600080fd5b506100b760048036038101906100b29190610ff4565b6101a0565b6040516100c996959493929190611376565b60405180910390f35b3480156100de57600080fd5b506100e7610261565b6040516100f49190611279565b60405180910390f35b34801561010957600080fd5b506101126102b9565b60405161011f9190611279565b60405180910390f35b610142600480360381019061013d9190610fb4565b610311565b005b61015e60048036038101906101599190610ff4565b61064d565b005b60008060009054906101000a900473ffffffffffffffffffffffffffffffffffffffff1673ffffffffffffffffffffffffffffffffffffffff1631905090565b600080600080600080600060026000898152602001908152602001600020905080600301548160040160009054906101000a900460ff168260010160009054906101000a900473ffffffffffffffffffffffffffffffffffffffff168360020160009054906101000a900473ffffffffffffffffffffffffffffffffffffffff1684600501548560040160019054906101000a900473ffffffffffffffffffffffffffffffffffffffff169650965096509650965096505091939550919395565b606060058054806020026020016040519081016040528092919081815260200182805480156102af57602002820191906000526020600020905b81548152602001906001019080831161029b575b5050505050905090565b6060600480548060200260200160405190810160405280929190818152602001828054801561030757602002820191906000526020600020905b8154815260200190600101908083116102f3575b5050505050905090565b600034905060003373ffffffffffffffffffffffffffffffffffffffff16319050818111610374576040517f08c379a000000000000000000000000000000000000000000000000000000000815260040161036b9061129b565b60405180910390fd5b7f137d7aa273c0c747b1ef4874b27c6d8a20a77dc18e83e38d8d38bebaec68b0b16003546040516103a59190611405565b60405180910390a160405180610100016040528060035481526020013373ffffffffffffffffffffffffffffffffffffffff168152602001600073ffffffffffffffffffffffffffffffffffffffff1681526020018481526020018515158152602001600073ffffffffffffffffffffffffffffffffffffffff1681526020018381526020016000600381111561043f5761043e611683565b5b8152506002600060035481526020019081526020016000206000820151816000015560208201518160010160006101000a81548173ffffffffffffffffffffffffffffffffffffffff021916908373ffffffffffffffffffffffffffffffffffffffff16021790555060408201518160020160006101000a81548173ffffffffffffffffffffffffffffffffffffffff021916908373ffffffffffffffffffffffffffffffffffffffff1602179055506060820151816003015560808201518160040160006101000a81548160ff02191690831515021790555060a08201518160040160016101000a81548173ffffffffffffffffffffffffffffffffffffffff021916908373ffffffffffffffffffffffffffffffffffffffff16021790555060c0820151816005015560e08201518160060160006101000a81548160ff0219169083600381111561059557610594611683565b5b021790555090505060046003549080600181540180825580915050600190039060005260206000200160009091909190915055600360008154809291906105db9061157d565b919050555060008054906101000a900473ffffffffffffffffffffffffffffffffffffffff1673ffffffffffffffffffffffffffffffffffffffff166108fc349081150290604051600060405180830381858888f19350505050158015610646573d6000803e3d6000fd5b5050505050565b60006002600083815260200190815260200160002090508060010160009054906101000a900473ffffffffffffffffffffffffffffffffffffffff1673ffffffffffffffffffffffffffffffffffffffff163373ffffffffffffffffffffffffffffffffffffffff1614156106f7576040517f08c379a00000000000000000000000000000000000000000000000000000000081526004016106ee906112fb565b60405180910390fd5b80600501543373ffffffffffffffffffffffffffffffffffffffff163111610754576040517f08c379a000000000000000000000000000000000000000000000000000000000815260040161074b906112bb565b60405180910390fd5b8060050154341461079a576040517f08c379a00000000000000000000000000000000000000000000000000000000081526004016107919061129b565b60405180910390fd5b8060010160009054906101000a900473ffffffffffffffffffffffffffffffffffffffff1673ffffffffffffffffffffffffffffffffffffffff163373ffffffffffffffffffffffffffffffffffffffff16141561082d576040517f08c379a00000000000000000000000000000000000000000000000000000000081526004016108249061131b565b60405180910390fd5b6000600381111561084157610840611683565b5b8160060160009054906101000a900460ff16600381111561086557610864611683565b5b146108a5576040517f08c379a000000000000000000000000000000000000000000000000000000000815260040161089c9061131b565b60405180910390fd5b60018160060160006101000a81548160ff021916908360038111156108cd576108cc611683565b5b0217905550338160020160006101000a81548173ffffffffffffffffffffffffffffffffffffffff021916908373ffffffffffffffffffffffffffffffffffffffff1602179055503481600501600082825461092991906114ab565b9250508190555060008054906101000a900473ffffffffffffffffffffffffffffffffffffffff1673ffffffffffffffffffffffffffffffffffffffff166108fc349081150290604051600060405180830381858888f19350505050158015610996573d6000803e3d6000fd5b507fc5a11d52cf9a308cc6bee96fbd885ebf4e1bdc7c3a8f6577b4bbb2ffcae18b2681600001546040516109ca9190611433565b60405180910390a1600160038111156109e6576109e5611683565b5b8160060160009054906101000a900460ff166003811115610a0a57610a09611683565b5b14610a4a576040517f08c379a0000000000000000000000000000000000000000000000000000000008152600401610a41906112db565b60405180910390fd5b6000816003015467ffffffffffffffff811115610a6a57610a69611710565b5b604051908082528060200260200182016040528015610a985781602001602082028036833780820191505090505b5090506000805b8360030154811015610b3157600060649050600081423386604051602001610ac99392919061123c565b6040516020818303038152906040528051906020012060001c610aec91906115f4565b905080858481518110610b0257610b016116e1565b5b6020026020010181815250508380610b199061157d565b94505050508080610b299061157d565b915050610a9f565b5060016003811115610b4657610b45611683565b5b8360060160009054906101000a900460ff166003811115610b6a57610b69611683565b5b14610baa576040517f08c379a0000000000000000000000000000000000000000000000000000000008152600401610ba19061133b565b60405180910390fd5b60028360060160006101000a81548160ff02191690836003811115610bd257610bd1611683565b5b021790555060008060005b8560030154811015610c41576032858281518110610bfe57610bfd6116e1565b5b60200260200101511015610c1f578280610c179061157d565b935050610c2e565b8180610c2a9061157d565b9250505b8080610c399061157d565b915050610bdd565b5060008560040160009054906101000a900460ff1615610cb957818311610c8c578560020160009054906101000a900473ffffffffffffffffffffffffffffffffffffffff16610cb2565b8560010160009054906101000a900473ffffffffffffffffffffffffffffffffffffffff165b9050610d13565b828211610cea578560020160009054906101000a900473ffffffffffffffffffffffffffffffffffffffff16610d10565b8560010160009054906101000a900473ffffffffffffffffffffffffffffffffffffffff165b90505b60038660060160006101000a81548160ff02191690836003811115610d3b57610d3a611683565b5b02179055507fb56a3879c54acd68bd9dd093207e495f57cb2a0b5d5dffe4e097ce6b79d2c70a8660000154604051610d7391906113d7565b60405180910390a1808660040160016101000a81548173ffffffffffffffffffffffffffffffffffffffff021916908373ffffffffffffffffffffffffffffffffffffffff1602179055508560040160019054906101000a900473ffffffffffffffffffffffffffffffffffffffff1673ffffffffffffffffffffffffffffffffffffffff166108fc87600501549081150290604051600060405180830381858888f19350505050158015610e2c573d6000803e3d6000fd5b5060016004805490501415610e68576004805480610e4d57610e4c6116b2565b5b60019003818190600052602060002001600090559055610f54565b6000805b600480549050811015610ebe57876000015460048281548110610e9257610e916116e1565b5b90600052602060002001541415610eab57809150610ebe565b8080610eb69061157d565b915050610e6c565b506001600480549050610ed19190611501565b8114610f2a5760046001600480549050610eeb9190611501565b81548110610efc57610efb6116e1565b5b906000526020600020015460048281548110610f1b57610f1a6116e1565b5b90600052602060002001819055505b6004805480610f3c57610f3b6116b2565b5b60019003818190600052602060002001600090559055505b60058660000154908060018154018082558091505060019003906000526020600020016000909190919091505550505050505050565b600081359050610f99816118c2565b92915050565b600081359050610fae816118d9565b92915050565b60008060408385031215610fcb57610fca61173f565b5b6000610fd985828601610f8a565b9250506020610fea85828601610f9f565b9150509250929050565b60006020828403121561100a5761100961173f565b5b600061101884828501610f9f565b91505092915050565b600061102d8383611207565b60208301905092915050565b61104281611535565b82525050565b61105961105482611535565b6115c6565b82525050565b600061106a82611471565b6110748185611489565b935061107f83611461565b8060005b838110156110b05781516110978882611021565b97506110a28361147c565b925050600181019050611083565b5085935050505092915050565b6110c681611547565b82525050565b60006110d960108361149a565b91506110e482611751565b602082019050919050565b60006110fc60128361149a565b91506111078261177a565b602082019050919050565b600061111f600e8361149a565b915061112a826117a3565b602082019050919050565b600061114260198361149a565b915061114d826117cc565b602082019050919050565b600061116560138361149a565b9150611170826117f5565b602082019050919050565b6000611188600d8361149a565b91506111938261181e565b602082019050919050565b60006111ab600e8361149a565b91506111b682611847565b602082019050919050565b60006111ce60168361149a565b91506111d982611870565b602082019050919050565b60006111f160198361149a565b91506111fc82611899565b602082019050919050565b61121081611573565b82525050565b61121f81611573565b82525050565b61123661123182611573565b6115ea565b82525050565b60006112488286611225565b6020820191506112588285611048565b6014820191506112688284611225565b602082019150819050949350505050565b60006020820190508181036000830152611293818461105f565b905092915050565b600060208201905081810360008301526112b4816110cc565b9050919050565b600060208201905081810360008301526112d4816110ef565b9050919050565b600060208201905081810360008301526112f481611135565b9050919050565b6000602082019050818103600083015261131481611158565b9050919050565b60006020820190508181036000830152611334816111c1565b9050919050565b60006020820190508181036000830152611354816111e4565b9050919050565b60006020820190506113706000830184611216565b92915050565b600060c08201905061138b6000830189611216565b61139860208301886110bd565b6113a56040830187611039565b6113b26060830186611039565b6113bf6080830185611216565b6113cc60a0830184611039565b979650505050505050565b60006040820190506113ec6000830184611216565b81810360208301526113fd81611112565b905092915050565b600060408201905061141a6000830184611216565b818103602083015261142b8161117b565b905092915050565b60006040820190506114486000830184611216565b81810360208301526114598161119e565b905092915050565b6000819050602082019050919050565b600081519050919050565b6000602082019050919050565b600082825260208201905092915050565b600082825260208201905092915050565b60006114b682611573565b91506114c183611573565b9250827fffffffffffffffffffffffffffffffffffffffffffffffffffffffffffffffff038211156114f6576114f5611625565b5b828201905092915050565b600061150c82611573565b915061151783611573565b92508282101561152a57611529611625565b5b828203905092915050565b600061154082611553565b9050919050565b60008115159050919050565b600073ffffffffffffffffffffffffffffffffffffffff82169050919050565b6000819050919050565b600061158882611573565b91507fffffffffffffffffffffffffffffffffffffffffffffffffffffffffffffffff8214156115bb576115ba611625565b5b600182019050919050565b60006115d1826115d8565b9050919050565b60006115e382611744565b9050919050565b6000819050919050565b60006115ff82611573565b915061160a83611573565b92508261161a57611619611654565b5b828206905092915050565b7f4e487b7100000000000000000000000000000000000000000000000000000000600052601160045260246000fd5b7f4e487b7100000000000000000000000000000000000000000000000000000000600052601260045260246000fd5b7f4e487b7100000000000000000000000000000000000000000000000000000000600052602160045260246000fd5b7f4e487b7100000000000000000000000000000000000000000000000000000000600052603160045260246000fd5b7f4e487b7100000000000000000000000000000000000000000000000000000000600052603260045260246000fd5b7f4e487b7100000000000000000000000000000000000000000000000000000000600052604160045260246000fd5b600080fd5b60008160601b9050919050565b7f4e6f7420656e6f75676820657468657200000000000000000000000000000000600082015250565b7f42616c616e6365206e6f7420656e6f7567680000000000000000000000000000600082015250565b7f4d617463682046696e6973686564000000000000000000000000000000000000600082015250565b7f4d61746368206973206e6f7420696e2070726f67726573732100000000000000600082015250565b7f43616e6e6f7420616363657074206d6174636800000000000000000000000000600082015250565b7f4d61746368204372656174656400000000000000000000000000000000000000600082015250565b7f4d61746368204163636570746564000000000000000000000000000000000000600082015250565b7f556e61626c6520746f20616363657074206d6174636800000000000000000000600082015250565b7f4d617463682063757272656e746c792066696e697368696e6700000000000000600082015250565b6118cb81611547565b81146118d657600080fd5b50565b6118e281611573565b81146118ed57600080fd5b5056fea264697066735822122001325144347a6c9b83302801d95e16a87e0b047eaec1f3e827916005b22a525264736f6c63430008070033",
  "immutableReferences": {},
  "source": "// SPDX-License-Identifier: MIT\npragma solidity >=0.8.7 <0.9.0;\n\nimport \"./CoinGameLibrary.sol\";\n\ncontract CoinGame {\n  event MatchCreated(uint, string);\n  event MatchAccepted(uint, string);\n  event MatchFinished(uint, string);\n\n  struct Game {\n    uint gameId;\n    address player1;\n    address player2;\n    uint rounds;\n    bool isHeads;\n    address winner;\n    uint amount;\n    CoinGameLibrary.GAME_STATUS gameStatus;\n  }\n\n  address payable owner;\n  address private oracle;\n\n  mapping(uint => Game) games;\n  uint private gameId;\n\n  uint[] openGames;\n  uint[] finishedGames;\n\n  constructor() public {\n    gameId = 0;\n    owner = payable(address(this));\n  }\n\n  function createMatch(bool _isHeads, uint _rounds) external payable {\n    uint amount = msg.value;\n    uint balance = address(msg.sender).balance;\n    require(balance > amount, \"Not enough ether\");\n\n    emit MatchCreated(gameId, \"Match Created\");\n    games[gameId] = Game(\n      gameId,\n      msg.sender,\n      address(0x0),\n      _rounds,\n      _isHeads,\n      address(0x0),\n      amount,\n      CoinGameLibrary.GAME_STATUS.OPEN\n    );\n    openGames.push(gameId);\n    gameId++;\n\n    owner.transfer(msg.value);\n  }\n\n  function acceptMatch(uint256 _gameId) external payable {\n    //match check and accept\n    Game storage m = games[_gameId];\n    require(msg.sender != m.player1, \"Cannot accept match\");\n    require(address(msg.sender).balance > m.amount, \"Balance not enough\");\n    require(msg.value == m.amount, \"Not enough ether\");\n    require(msg.sender != m.player1, \"Unable to accept match\");\n    require(m.gameStatus == CoinGameLibrary.GAME_STATUS.OPEN, \"Unable to accept match\");\n    m.gameStatus = CoinGameLibrary.GAME_STATUS.IN_PROGRESS;\n    m.player2 = msg.sender;\n    m.amount += msg.value;\n    owner.transfer(msg.value);\n    emit MatchAccepted(m.gameId, \"Match Accepted\");\n    //finssh game\n    require(m.gameStatus == CoinGameLibrary.GAME_STATUS.IN_PROGRESS, \"Match is not in progress!\");\n\n    uint[] memory results = new uint[](m.rounds);\n\n    uint randNonce = 0;\n    for(uint i = 0; i < m.rounds; i++) {\n      uint modulus = 100;\n      //I know its not really random... fight me\n      uint val = uint(keccak256(abi.encodePacked(block.timestamp, msg.sender, randNonce))) % modulus;\n      results[i] = val;\n      randNonce++;\n    }\n\n    //count totals\n    require(m.gameStatus == CoinGameLibrary.GAME_STATUS.IN_PROGRESS, \"Match currently finishing\");\n    m.gameStatus = CoinGameLibrary.GAME_STATUS.DETERMINING_RESULT;\n    uint256 hCount = 0;\n    uint256 tCount = 0;\n    for(uint256 i = 0; i < m.rounds; i++) {\n      if(results[i] < 50) {\n        hCount++;\n      } else {\n        tCount++;\n      }\n    }\n\n    //set winner\n    address winner = address(0);\n    if(m.isHeads) {\n      winner =  hCount > tCount ? m.player1 : m.player2;\n    } else {\n      winner =  tCount > hCount ? m.player1 : m.player2;\n    }\n\n    //finish game and transfer moeny\n    m.gameStatus = CoinGameLibrary.GAME_STATUS.FINISHED;\n    emit MatchFinished(m.gameId, \"Match Finished\");\n    m.winner = winner;\n    payable(m.winner).transfer(m.amount);\n\n    //remove entry from openGames\n    if(openGames.length == 1) {\n      openGames.pop();\n    } else {\n      uint index = 0;\n      for(uint i = 0; i < openGames.length; i++) {\n        if(openGames[i] == m.gameId) {\n          index = i;\n          break;\n        }\n      }\n      if(index != (openGames.length - 1)) {\n        openGames[index] = openGames[openGames.length - 1];\n      }\n      openGames.pop();\n    }\n    finishedGames.push(m.gameId);\n  }\n\n\n  //aux funcs\n  function isMatchInProgress(uint _gameId) private view returns(bool) {\n    Game storage m = games[_gameId];\n    return (m.gameStatus == CoinGameLibrary.GAME_STATUS.IN_PROGRESS);\n  }\n\n  function viewOpenMatches() public view returns(uint[] memory) {\n    return openGames;\n  }\n\n  function viewFinishedMatches() public view returns(uint[] memory) {\n    return finishedGames;\n  }\n\n  function getMatch(uint _gameId) public view returns(uint, bool, address, address, uint, address) {\n    Game storage m = games[_gameId];\n    return (m.rounds, m.isHeads, m.player1, m.player2, m.amount, m.winner);\n  }\n\n  function getBalance() public view returns (uint) {\n    return address(owner).balance;\n  }\n\n  receive() payable external {}\n}\n",
  "sourcePath": "C:/Users/theda/Documents/Projects/Dapps/jjjdao.coin.wager/coin-flip/src/smart-contracts/contracts/CoinGame.sol",
  "compiler": {
    "name": "solc",
    "version": "0.8.7+commit.e28d00a7.Emscripten.clang"
  },
  "schemaVersion": "3.4.1",
  "updatedAt": "2021-10-29T04:33:22.104Z",
  "networkType": "ethereum",
  "devdoc": {
    "kind": "dev",
    "methods": {},
    "version": 1
  },
  "userdoc": {
    "kind": "user",
    "methods": {},
    "version": 1
  }
}